:100000000C9436020C9457020C9457020C9457022D
:100010000C9457020C94E0080C94BB080C94570203
:100020000C9457020C9457020C9457020C945702EC
:100030000C9457020C9457020C9457020C945702DC
:100040000C9457020C9457020C9457020C945702CC
:100050000C9457020C9457020C9457020C945702BC
:100060000C9457020C9457020C9457020C945702AC
:100070000C9457020C9457020C9457020C9457029C
:100080000C9457020C9457020C9457020C9457028C
:100090000C9457020C9457020C9457020C9457027C
:1000A0000C9457020C9457020C9457020C9457026C
:1000B0000C9457020C9457020C9457020C9457025C
:1000C0000C9457020C9457020C9457020C94720A29
:1000D0000C9457020C9457020C9457020C9457023C
:1000E0000C945702FFFFFFFFFF00FFFFFFFFFFFF22
:1000F00000FFFFFFFFFFFF00FFFFFFFFFFFF00FF0D
:10010000FFFFFFFFFF00FFFFFFFFFFFF00FFFFFFFD
:10011000FFFFFF00FFFFFFFFFFFF00FFFFFFFFFFED
:10012000FF00FFFFFFFFFFFF00FFFFFFFFFFFF00DC
:10013000FFFFFFFFFFFF00FFFFFFFFFFFF00FFFFCD
:10014000FFFFFFFF00FFFFFFFFFFFF00FFFFFFFFBD
:10015000FFFF00FFFFFFFFFFFF00FFFFFFFFFFFFAD
:1001600000FFFFFFFFFFFF00FFFFFFFFFFFF00FF9C
:10017000FFFFFFFFFF00FFFFFFFFFFFF00FFFFFF8D
:10018000FFFFFF00FFFFFFFFFFFF00FFFFFFFFFF7D
:10019000FF00FFFFFFFFFFFF00FFFFFFFFFFFF006C
:1001A000FFFFFFFFFFFF00FFFFFFFFFFFF00FFFF5D
:1001B000FFFFFFFF00FFFFFFFFFFFF00FFFFFFFF4D
:1001C000FFFF00FF0000000000FFFF00004F0000E5
:1001D00000FF000700070000FF147F147F1400FFDA
:1001E000242A7F2A1200FF231308646200FF364985
:1001F00055222000FF000503000000FF001C2241E3
:100200000000FF0041221C0000FF14083E081400FB
:10021000FF08083E080800FF503000000000FF08FB
:100220000808080800FF006060000000FF201008B8
:10023000040200FF3E5149453E00FF40427F4040DE
:1002400000FF426151494600FF2141454B3100FF0B
:100250001814127F1000FF274545453900FF3C4A1E
:1002600049493000FF017109050300FF364949493A
:100270003600FF064949291E00FF003636000000FF
:10028000FF005636000000FF081422410000FF1452
:100290001414141400FF004122140800FF0201513D
:1002A000090600FF3E415D551E00FF7E1111117EC3
:1002B00000FF7F4949493600FF3E4141412200FF8E
:1002C0007F4141221C00FF7F4949494100FF7F09CE
:1002D00009090100FF3E4149497A00FF7F080808EB
:1002E0007F00FF00417F410000FF2040413F0100AF
:1002F000FF7F0814224100FF7F4040404000FF7F05
:10030000020C027F00FF7F0408107F00FF3E414186
:10031000413E00FF7F0909090600FF3E4151215E71
:1003200000FF7F0919294600FF264949493200FF8D
:1003300001017F010100FF3F4040403F00FF1F20BF
:1003400040201F00FF3F4038403F00FF6314081467
:100350006300FF070870080700FF6151494543002B
:10036000FF007F41410000FF020408102000FF0051
:1003700041417F0000FF040201020400FF404040B1
:10038000404000FF000003050000FF205454547853
:1003900000FF7F4444443800FF384444444400FF95
:1003A000384444447F00FF385454541800FF040478
:1003B0007E050500FF085454543C00FF7F080404E8
:1003C0007800FF00447D4000FFFF2040443D00FFD7
:1003D000FF7F10284400FFFF417F4000FFFFFF7CAC
:1003E000047C047800FF7C0804047800FF3844444F
:1003F000443800FF7C1414140800FF081414147C03
:1004000000FF7C08040400FFFF485454542400FFFC
:1004100004043F444400FF3C4040207C00FF1C207B
:1004200040201C00FF3C4030403C00FF4428102886
:100430004400FF0C5050503C00FF4464544C4400B6
:10044000FF083641410000FF000077000000FF0078
:100450004141360800FF08082A1C0800FF081C2A32
:10046000080800FFFFFFFFFFFF00FF0011241FBE71
:10047000CFEFD1E2DEBFCDBF00E00CBF13E1A0E0C3
:10048000B2E0E4EBFBE200E00BBF02C007900D928C
:10049000A437B107D9F714E1A4E7B3E101C01D9275
:1004A000A930B107E1F70E948E100C94D8150C9476
:1004B0000000EBE0F1E080818160808380818D7FAE
:1004C00080830895EBE0F1E0808182608083808109
:1004D0008E7F80830895E4E0F1E080818F778083D0
:1004E0005D985E9AE3E0F1E05F988AE08A95F1F723
:1004F0005F9A8AE08A95F1F780818823ACF3E4E083
:10050000F1E08081806880830895CF93C82F0E9496
:100510006B02C09305015D9A5E985F9A8AE08A95A6
:10052000F1F75F98CF910895CF93C82F0E946B0287
:10053000C09305015D985E985F9A8AE08A95F1F70D
:100540005F98CF91089586E69EE00197F1F700004D
:100550004098419880E388B9429AEFEFF7E43197E9
:10056000F1F700C000004298E6E6FEE03197F1F7AF
:1005700000004098419888B9429AEFEFF7E431972C
:10058000F1F700C000004298E6E6FEE03197F1F78F
:1005900000004098419888B9429A8FEF97E40197FC
:1005A000F1F700C000004298E6E6FEE03197F1F76F
:1005B00000004098419880E288B9429A8FEF97E412
:1005C0000197F1F700C000004298089598B19F701C
:1005D00098B998B1282F207F922B98B940984198CC
:1005E000429AEFEFF7E43197F1F700C0000042982C
:1005F00098B19F7098B998B18295807F892B88B9FE
:1006000040984198429A8FEF97E40197F1F700C024
:100610000000429808950E94A30286E69EE001979A
:10062000F1F7000088E20E94E60281E00E94E60203
:1006300086E00E94E6028EE00E94E60280E80E94C8
:10064000E602089598B19F7098B998B1282F207F3D
:10065000922B98B9409A4198429AEFEFF7E431977C
:10066000F1F700C00000429898B19F7098B998B116
:100670008295807F892B88B9409A4198429A8FEF62
:1006800097E40197F1F700C000004298089580E8D0
:100690000E94E6020895CF93DF93EC0188818823BE
:1006A00031F021960E94220389918823D9F7DF91A6
:1006B000CF910895823079F0833018F48130C9F4F5
:1006C00005C0833069F08430A1F40FC0862F8158B3
:1006D0000E94E6020895862F81540E94E602089542
:1006E000862F8D560E94E6020895862F8D520E9415
:1006F000E60208950F931F93CF93DF938A01E901D8
:10070000882311F0662319F40E94470302C00E9457
:100710005A03C530D10571F4C80160E177E20E9447
:100720001614CB01C0969093EA138093E9130E94AC
:10073000220303C0C430D105B9F4C80168EE73E0E8
:100740000E941614CB017093F0136093EF136AE0CC
:1007500070E00E941614C0969093041480930314C2
:100760000E94220381E001C080E0C330D10511F076
:100770008130B1F4C80164E670E00E941614CB0128
:100780007093F0136093EF136AE070E00E94161408
:10079000C096909300148093FF130E94220381E07F
:1007A000C230D10511F08130B1F42AE030E0C80147
:1007B000B9010E941614CB017093F0136093EF13EC
:1007C000B9010E941614C0969093F7138093F61304
:1007D0000E94220381E0C130D10511F0813061F423
:1007E000C8016AE070E00E941614C096909302144B
:1007F000809301140E942203C630D1051CF085E4C9
:100800000E942203DF91CF911F910F9108951F93B2
:10081000CF93DF93C82FD62F142F8230D0F46830B7
:10082000C0F44034B0F4882319F40E94590202C085
:100830000E946202C093F113D86BD093F213812F00
:1008400080648093F3130E9494028091F2130E94BB
:100850009402DF91CF911F9108952091F113FC0133
:1008600020838091F213FB0180838091F313FA01BE
:1008700080830895CF93C82F8230A0F4882319F481
:100880000E94590202C00E946202C093F11380E4E8
:100890008093F3138091F2130E9494028091F313DA
:1008A0000E949402CF910895883030F48854809348
:1008B000F21380E00E943A0408950F931F93CF93A0
:1008C000DF930091F4131092F41310E0D1E0812F24
:1008D0000E945404CD2F01C0CF5FC13439F48D2F55
:1008E0000E943A0480E00E948502F6CF80E00E94D8
:1008F0008502CC238CF71F5F183049F70093F4135F
:1009000080E00E945404DF91CF911F910F910895D0
:100910008FEF8AB98093040180930A010E945902E3
:100920008FE30E9494020E9462028FE30E9494026D
:100930008FEF9FE80197F1F700C000000E94590275
:1009400080EC0E9494020E94620280EC0E94940259
:100950000E945D0408958091F2138F5F8093F213DB
:10096000803C18F088EB8093F21380E00E943A04F8
:1009700008958FEF8093F41308951092F41308955F
:10098000EF92FF920F931F93CF93DF93C82F809125
:10099000F113813021F48091F3138C3718F4CA30AD
:1009A00029F430C00E94AB04CA3071F18C2F90E062
:1009B000EC01CC0FDD1FCC0FDD1FCC0FDD1FC81BE2
:1009C000D90BCC51DF4F0F2EF1EFEF2EF3E1FF2EBD
:1009D000F02D03EF13E1F7018081882339F4F8014A
:1009E0008081803819F481E00E943A04FE018491EC
:1009F0008F3F51F021960E948502F80180818F5F20
:100A00008083E9CF0E94AB04DF91CF911F910F91BA
:100A1000FF90EF900895CF93DF93EC0188818823B6
:100A200031F021960E94C00489918823D9F7DF9183
:100A3000CF9108958F929F92AF92BF92EF92FF92C3
:100A40000F931F93CF93DF93CDB7DEB72A970FB6DF
:100A5000F894DEBF0FBECDBFDC01CB01042F0097A1
:100A6000A105B10519F0442371F443C0442309F4EE
:100A700040C0FE01319610E011921F5F101781F106
:100A80001A30D1F72DC07E010894E11CF11C10E052
:100A90000F2EFAE08F2EF0E09F2EF0E0AF2EF0E068
:100AA000BF2EF02D0097A105B10569F0BC01CD0165
:100AB000A50194010E942A14F7016083822F932FCD
:100AC000A42FB52F04C00B3048F4F70110821F5F2C
:100AD0000894E11CF11C101729F702C0112349F0FA
:100AE000FE01E10FF11D8081805D0E94C004115064
:100AF000B9F72A960FB6F894DEBF0FBECDBFDF91CF
:100B0000CF911F910F91FF90EF90BF90AF909F906A
:100B10008F9008951F93CF93DF93CDB7DEB72A97B9
:100B20000FB6F894DEBF0FBECDBFDC01CB0100973E
:100B3000A105B10519F0442369F436C04423A1F19D
:100B4000FE01319610E011921F5F141701F11A3067
:100B5000D1F71DC0FE01319610E00097A105B10547
:100B600061F0282F2F702083689413F8B695A7950D
:100B7000979587951694D1F703C04B3030F41082C7
:100B80001F5F3196141749F702C0112369F0FE0167
:100B9000E10FF11D80818A3010F0895C01C0805D19
:100BA0000E94C004115099F72A960FB6F894DEBF40
:100BB0000FBECDBFDF91CF911F910895BF92CF920D
:100BC000DF92EF92FF920F931F93CF93DF936B010E
:100BD0007C01C42F442319F101E010E0D1E0BB24D3
:100BE0004C2F50E041505040C80102C0880F991F5F
:100BF0004A95E2F7AC01662757FD6095762F4C21A8
:100C00005D216E217F218D2F4115510561057105F3
:100C100009F48B2D805D0E94C004C15009F7DF915B
:100C2000CF911F910F91FF90EF90DF90CF90BF90E9
:100C30000895CF92DF92EF92FF920F931F93CF937D
:100C4000DF936B017C010E94F912062F172FD82F1A
:100C5000C92F4FEF0E941A058EE20E94C004602F38
:100C6000712F8D2F9C2F0E9425139B01AC01C70172
:100C7000B6010E942C1220E034E244E759E40E94BD
:100C8000B313462F572F682F792FCB01BA010E943B
:100C9000F9124FEF0E941A05DF91CF911F910F912A
:100CA000FF90EF90DF90CF9008955F926F927F92C8
:100CB0008F929F92AF92BF92CF92DF92EF92FF926C
:100CC0000F931F93CF93DF93CDB7DEB70F2EF3E1D2
:100CD000CF2EDD24F02DCC0EDD1ED601ED91FD9141
:100CE0006D018081882309F42FC18F0155246894F8
:100CF00054F899249A948824853209F018C158012F
:100D00000894A11CB11CF8018181982F90539A304E
:100D100080F43296182D110F912F990F990F190FFA
:100D20008053180F5F018191982F90539A3098F358
:100D300001C0192D883509F4A8C08935C0F4843460
:100D400009F451C0853448F4823409F4C2C08334B4
:100D500028F5853209F0EEC0E6C0833509F4D9C024
:100D6000853509F471C0863409F0E4C0C6C0863602
:100D700009F4C3C0873640F4833681F08436B9F075
:100D8000823609F0D7C091C0853709F44CC0883746
:100D900009F46AC0833709F0CDC0BBC086010E5F7D
:100DA0001F4FD6018C910E94C0046801C3C0EE247D
:100DB000FF246894E1F8EC0CFD1CF601C080D180A2
:100DC000DD203CF4D094C194D108D3948DE20E94EC
:100DD000C004B601882777FD8095982F412F0E9487
:100DE0001A056701A7C066247724689462F86C0C22
:100DF0007D1CD601CD90DD90ED90FC901397FF20E7
:100E00005CF4F094E094D094C094C11CD11CE11C1B
:100E1000F11C8DE20E94C004C701B601412F0E945F
:100E20001A05630187C0EE24FF246894E1F8EC0CF6
:100E3000FD1CF60180819181BC0180E090E0412F92
:100E40000E941A05670176C0EE24FF246894E2F838
:100E5000EC0CFD1CD6016D917D918D919C91412FE3
:100E60000E941A05670166C0EE24FF246894E1F829
:100E7000EC0CFD1CF60180819181BC0180E090E0CA
:100E8000412F0E948A05670155C0EE24FF24689413
:100E9000E2F8EC0CFD1CD6016D917D918D919C9139
:100EA000412F0E948A05670145C0EE24FF24689403
:100EB000E1F8EC0CFD1CF601808191811F3F09F4E3
:100EC000152DBC0180E090E0412F0E94DE056701F6
:100ED00031C0EE24FF246894E2F8EC0CFD1CD6012E
:100EE0006D917D918D919C9113971F3F09F4152D64
:100EF000412F0E94DE0567011DC086010C5F1F4F58
:100F0000F60160817181828193810E9419066801D6
:100F100011C0F60182E090E0C80ED91E8081918157
:100F20000E940B0507C085E20E94C00403C00E9416
:100F3000C004580185010F5F1F4FD50111968C9198
:100F40001197882309F0D8CEDF91CF911F910F918F
:100F5000FF90EF90DF90CF90BF90AF909F908F90D9
:100F60007F906F905F9008956F927F928F929F9283
:100F7000BF92CF92DF92EF92FF920F931F93CF9386
:100F8000DF932FEF8F3F920709F44FC088249924F5
:100F9000BB2403EF13E120E531E0829F3001839F02
:100FA000700C929F700C11240F2EF1EFCF2EF3E1F5
:100FB000DF2EF02D8B2D0E945404CBE2D0E080E098
:100FC0000E948502F80180818F5F80832197B9F7A5
:100FD000C301880D991D0F2EFEE4EF2EF6E0FF2EC3
:100FE000F02DE80EF91ECAE2F6018081882339F45B
:100FF000F8018081803819F481E00E943A04F701F9
:1010000081917F010E948502F80180818F5F80833A
:10101000C15051F7855D8083B3948AE290E0880ED9
:10102000991E98E0B91631F638C088249924D2E088
:101030000F2EF0E8BF2EF02D0F2EF1EFCF2EF3E1A3
:10104000DF2EF02D03EF13E18D2F0E9454040F2E9D
:10105000FEE4EF2EF4E0FF2EF02DE80CF91CCB2D72
:10106000F6018081882339F4F8018081803819F4F1
:1010700081E00E943A04F70181917F010E9485027C
:10108000F80180818F5F8083C15051F7DF5F80E876
:1010900090E0880E991ED630B9F680E00E94540484
:1010A000DF91CF911F910F91FF90EF90DF90CF9044
:1010B000BF909F908F907F906F90089587B1876FBA
:1010C00087B988B1807888B9089510BA11BA10929A
:1010D000070110920801089581B18F6081B982B132
:1010E000807F82B9EAE0F1E0808188618083EBE073
:1010F000F1E080818861808308956C98749A0895E6
:101100006D98759A08953B9A439808956F98779AC9
:10111000089583B3836083BB84B38C7F84BB0895BD
:101120000E945E080E9465080E946C080E947D086B
:101130000E9480080E9483080E9489080E948608F5
:101140000895F894EAE6F0E0808182608083EC9A6A
:1011500078940895F894EAE6F0E0808188608083CE
:10116000ED9A7894089586B1886088B9089586B11B
:10117000877F88B908951F920F920FB60F9211249E
:101180008F939F93AF93BF938091D9139091DA136C
:10119000A091DB13B091DC130196A11DB11D8093CA
:1011A000D9139093DA13A093DB13B093DC13BF91A0
:1011B000AF919F918F910F900FBE0F901F90189538
:1011C0001F920F920FB60F9211248F939F93AF939C
:1011D000BF938091DD139091DE13A091DF13B09146
:1011E000E0130196A11DB11D8093DD139093DE13D2
:1011F000A093DF13B093E013BF91AF919F918F91B4
:101200000F900FBE0F901F901895E1E2F1E0108251
:101210008FEF8093250191E0909324011092290192
:101220008093280110922B0180932A0110922D01A6
:1012300080932C0189EA809320018BE080830895BC
:10124000EAE7F0E0108210927B0080E280937C005D
:1012500080E880BF86E880830895883018F098E0A1
:1012600090937B008770806280937C00EAE7F0E0D7
:10127000808180648083808184FFFDCF80917900AC
:10128000EAE7F0E090819061908310927B000895EE
:10129000CF93DF93D82FC62F842F0E942D09482F7C
:1012A0008093F5138D2F6C2F50E023E030E00E94E7
:1012B0007A03DF91CF9108958093280160932A01EA
:1012C000089592B1907F8F70982B92B9089586E01F
:1012D0000E946109089589E00E946109089585E0EE
:1012E0000E94610908958AE00E946109089584E0DE
:1012F0000E946109089582E00E946109089581E0D9
:101300000E946109089588E00E946109089580E0C3
:101310000E94610908950F931F93CF93BC0180E051
:1013200090E00E94251328E431EE42E850E40E9448
:1013300091120E94F912DC01CB01A0E0B0E0109202
:10134000D9131092DA131092DB131092DC1310925F
:10135000DD131092DE131092DF131092E013F1E010
:10136000C0E04091D9135091DA136091DB13709172
:10137000DC130091DD131091DE132091DF13309107
:10138000E013EF2F481759076A077B0708F4EC2F83
:10139000EE2349F44F2F081719072A073B0708F4D3
:1013A0004C2F4423F1F20E948709CF911F910F9196
:1013B0000895BC0180E090E00E94251325EE30EDF9
:1013C0004AEA50E40E9491120E94F912462F572FC8
:1013D000682F792F1092D9131092DA131092DB1321
:1013E0001092DC138091D9139091DA13A091DB1342
:1013F000B091DC13481759076A077B0798F70E94DA
:1014000087090895CF93DF93EC010E946709CE010D
:101410000E94D909DF91CF910895CF93DF93EC011A
:101420000E946B09CE010E94D909DF91CF910895E6
:10143000CF93DF93EC010E946F09CE010E948B09CC
:10144000DF91CF910895CF93DF93EC010E94730950
:10145000CE010E948B09DF91CF910895CF93DF9346
:10146000EC010E947709CE01880F991F0E948B0919
:10147000DF91CF910895CF93DF93EC010E947B0918
:10148000CE01880F991F0E948B09DF91CF9108959B
:10149000CF93DF93EC010E947F09CE01880F991F43
:1014A0000E948B09DF91CF910895CF93DF93EC01D8
:1014B0000E948309CE01880F991F0E948B09DF913A
:1014C000CF910895E1EDF0E010821092D00086E017
:1014D0008093D2008FE58093D4001092D50088E9E4
:1014E000808308951F920F920FB60F920BB60F9242
:1014F00011242F933F934F935F936F937F938F9319
:101500009F93AF93BF93EF93FF93E6EDF0E080815D
:101510008093FD13808385E793E16DEF73E10E9473
:101520009E15FF91EF91BF91AF919F918F917F9108
:101530006F915F914F913F912F910F900BBE0F9044
:101540000FBE0F901F901895F8940E9490080E946B
:10155000A3020E940B030E9488040E94620A0E9458
:1015600020090E9405090E94A1080E94AA087894F7
:10157000089582B3816084BB089582B38E7F84BB5B
:10158000089582B3826084BB089582B38D7F84BB4B
:101590000895FC01DB01808191812D913C9111978F
:1015A000821B930B1AF4909581959F4F2281338172
:1015B00012964D915C911397241B350B1AF43095BC
:1015C00021953F4F820F931F0895AF92BF92CF9204
:1015D000DF92EF92FF920F931F93CF93DF935C0103
:1015E000062FE72E84E090E00E944C14C82ED92EDE
:1015F000C02FDE2D0F2EF4E6EF2EFF24F02D00E09D
:1016000010E0C501BE010E94C90A8E159F0554F461
:1016100028813981F601318320832A813B813383FC
:1016200022837C010F5F1F4F24960430110549F778
:101630008C2D9D2DDF91CF911F910F91FF90EF90F9
:10164000DF90CF90BF90AF90089583E00E942D0966
:101650008093E31382E00E942D098093E21381E0DE
:101660000E942D098093E1130895CF93C82F109203
:10167000E41380910202909103022091E31330E081
:10168000821793076CF02091E21330E082179307E2
:1016900074F02091E11330E08217930744F488C07E
:1016A0002091E21330E0821793070CF07CC081E0B8
:1016B0008093E413C63419F40E94670902C00E94A3
:1016C0006B098091F8136091FE130E945C09809170
:1016D0000202909103022091E31330E082179307F6
:1016E000BCF12091E21330E0821793070CF465C03F
:1016F0002091E11330E0821793070CF05EC08091D7
:10170000E413882309F059C081E08093E413C634C0
:1017100059F40E9467098091F8136091FE13625397
:10172000825E0E945C090AC00E946B098091F813D6
:101730006091FE13625E82530E945C0980910202F6
:10174000909103022091E31330E082179307ACF5E8
:101750002091E21330E0821793077CF12091E1138E
:1017600030E0821793074CF18091E413882329F528
:1017700081E08093E413C63459F40E946709809194
:10178000F8136091FE13625E82530E945C0915C0DB
:101790000E946B098091F8136091FE136253825E80
:1017A0000E945C090AC08091020290910302D0CF8E
:1017B000809102029091030294CFCF910895CF922D
:1017C000DF92EF92FF92CF93C62FBC0180E090E0B2
:1017D0000E94251325EE30ED4AEA50E40E94911252
:1017E0000E94F912C62ED72EE82EF92E1092D91388
:1017F0001092DA131092DB131092DC131092DD13A7
:101800001092DE131092DF131092E0130E94250B4A
:101810008091D9139091DA13A091DB13B091DC136E
:10182000C816D906EA06FB0688F08091DD13909170
:10183000DE13A091DF13B091E013C816D906EA06B3
:10184000FB0620F08C2F0E94350BE0CF0E94870909
:10185000CF91FF90EF90DF90CF900895CF93C82F56
:101860000E94250B60910D02665F862F0E945C0925
:10187000CC3409F58BE490E00E94180A0E94250BF5
:101880002091E21330E080910202909103028217CE
:1018900093078CF10E94250B85E090E00E94180AC6
:1018A0002091E21330E080910202909103028217AE
:1018B000930784F720C08BE490E00E94230A0E94E3
:1018C000250B2091E21330E08091020290910302F7
:1018D0008217930784F00E94250B85E090E00E9418
:1018E000230A2091E21330E08091020290910302DA
:1018F0008217930784F760910D026A50862F0E9429
:101900005C098FEF9FE7A6E181509040A040E1F78E
:1019100000C00000CF91089590910C02981709F42F
:10192000B5C09E3461F5873539F48CE40E942E0CE5
:1019300087E580930C020895853439F482E50E948E
:101940002E0C85E480930C020895833509F072C053
:101950008091060290910702009739F482E50E9477
:101960002E0C82E50E942E0C06C08CE40E942E0CE8
:101970008CE40E942E0C83E580930C02089593352D
:1019800061F58E34B9F480910602909107020097B8
:1019900039F48CE40E942E0C8CE40E942E0C06C0BC
:1019A00082E50E942E0C82E50E942E0C8EE480932C
:1019B0000C020895853439F48CE40E942E0C85E4E1
:1019C00080930C020895873509F060C082E50E947B
:1019D0002E0C87E580930C020895953459F58E34CA
:1019E00039F48CE40E942E0C8EE480930C0208954E
:1019F0008735B9F48091040290910502009739F47B
:101A000082E50E942E0C82E50E942E0C06C08CE41A
:101A10000E942E0C8CE40E942E0C87E580930C0211
:101A20000895833599F582E50E942E0C83E5809315
:101A30000C020895973551F58E3439F482E50E94F1
:101A40002E0C8EE480930C0208958534B9F48091B5
:101A5000040290910502009739F48CE40E942E0C48
:101A60008CE40E942E0C06C082E50E942E0C82E5BA
:101A70000E942E0C85E480930C020895833531F486
:101A80008CE40E942E0C83E580930C0208950E9442
:101A9000250B05C00E94250B86E40E94350B809122
:101AA0000202909103022091E31330E08217930722
:101AB0003CF42091E21330E0821793071CF513C029
:101AC0002091E21330E08217930724F72091E1136D
:101AD00030E082179307F4F606C02091E11330E05E
:101AE00082179307BCF68FEF9FEFA8E081509040DC
:101AF000A040E1F700C0000082E390E066E40E94AD
:101B0000DF0B0895821793072CF6E7CF0F931F93EF
:101B1000CF93DF938C012091060230910702FC01E4
:101B2000828193818217930794F4C6E0D2E087E51F
:101B30000E948C0C0E94470D88819981019799839E
:101B40008883F801228133812817390784F3209193
:101B5000060230910702F801828193812817390724
:101B600094F4C6E0D2E085E40E948C0C0E94470DFC
:101B700088819981019699838883F8012281338134
:101B80008217930784F3DF91CF911F910F910895EE
:101B90000F931F93CF93DF938C0120910402309118
:101BA0000502FC01808191818217930794F4C4E0BF
:101BB000D2E08EE40E948C0C0E94470D88819981AE
:101BC000019799838883F80120813181281739078B
:101BD00084F32091040230910502F8018081918103
:101BE0002817390794F4C4E0D2E083E50E948C0CF6
:101BF0000E94470D88819981019699838883F80115
:101C0000208131818217930784F3DF91CF911F9157
:101C10000F910895CF93DF93EC0180910A02909188
:101C20000B0281309105A1F480910C02853411F0F2
:101C3000873539F4CE010E94860DCE010E94C80D71
:101C40001DC0CE010E94C80DCE010E94860D16C097
:101C5000888199818230910559F48A819B8100970E
:101C600039F4CE010E94C80DCE010E94860D06C037
:101C7000CE010E94860DCE010E94C80DDF91CF914A
:101C80000895EF92FF920F931F93CF93DF93EC0190
:101C90007B0184E090E00E944C14082F192FC13082
:101CA000D105C1F4B70162957295707F7627607F88
:101CB000762762577C4F84E092E00E94E50AFC019F
:101CC00080819181A281B381F80180839183A28375
:101CD000B38317C0B70162957295707F7627607FD6
:101CE0007627625F7D4F84E092E00E94E50AFC0166
:101CF00080819181A281B381F80180839183A28345
:101D0000B383C8010E940A0EF0920902E092080211
:101D1000DF91CF911F910F91FF90EF900895CF9396
:101D2000DF9380910C028E3441F540910602509170
:101D30000702E0910802F0910902E295F295F07F26
:101D4000FE27E07FFE27E057FC4FA0E0B0E0C0E0B8
:101D5000D0E020E030E0808191818417950714F471
:101D6000219604C0481759070CF411962F5F3F4F76
:101D700034962430310579F781C0833541F540919F
:101D8000060250910702E0910802F0910902E295E3
:101D9000F295F07FFE27E07FFE27E057FC4FA0E0A2
:101DA000B0E0C0E0D0E020E030E080819181841795
:101DB000950714F4119604C0481759070CF421969E
:101DC0002F5F3F4F34962430310579F757C0853463
:101DD00059F54091040250910502809108029091BA
:101DE000090220E030E0A0E0B0E0C0E0D0E0829561
:101DF0009295907F9827807F9827BC0162577C4FEF
:101E0000FB01E20FF31F808191818417950714F481
:101E1000219604C0481759070CF411962C5F3F4FC8
:101E20002031310569F72AC0409104025091050222
:101E3000809108029091090220E030E0A0E0B0E03B
:101E4000C0E0D0E082959295907F9827807F982778
:101E5000BC0162577C4FFB01E20FF31F808191812F
:101E60008417950714F4119604C0481759070CF409
:101E700021962C5F3F4F2031310569F7AC17BD0724
:101E800024F48CE48093741303C082E5809374136C
:101E9000DF91CF9108950F931F93CF93DF938C0120
:101EA000EB0182E390E066E40E94DF0B0E948F0E5C
:101EB000809174138C3419F40E94B90A02C00E94F4
:101EC000C10A0E945D04C8010E94B4078FEF9FE71A
:101ED000A6E181509040A040E1F700C00000C13071
:101EE000D10519F40E94470D05C089E190E062E434
:101EF0000E94DF0BDF91CF911F910F9108950F93F7
:101F00001F93CF93DF938C01EB014091040250911A
:101F100005022091080230910902F901E295F2953B
:101F2000F07FFE27E07FFE27E25FFD4F80819181F9
:101F300048175907F1F4F901E295F295F07FFE2771
:101F4000E07FFE27E25FFD4F60910602709107027D
:101F5000828193816817790761F4809174138C34BE
:101F600021F483E50E948C0C87C085E40E948C0CD0
:101F700083C0F901E295F295F07FFE27E07FFE270E
:101F8000E25FFD4F8481958148175907F1F4F9010B
:101F9000E295F295F07FFE27E07FFE27E25FFD4F9E
:101FA0006091060270910702868197816817790710
:101FB00061F4809174138C3421F487E50E948C0CB9
:101FC0005BC083E50E948C0C57C0F901E295F29545
:101FD000F07FFE27E07FFE27E25FFD4F8085918541
:101FE00048175907F1F4F901E295F295F07FFE27C1
:101FF000E07FFE27E25FFD4F6091060270910702CD
:10200000828593856817790761F4809174138C3405
:1020100021F48EE40E948C0C2FC087E50E948C0C6A
:102020002BC0F901E295F295F07FFE27E07FFE27B5
:10203000E25FFD4F8485958548175907E9F422959D
:102040003295307F3227207F3227F901E25FFD4F42
:102050002091060230910702868597852817390757
:1020600059F4809174138C3421F485E40E948C0C13
:1020700003C08EE40E948C0C82E390E066E40E9430
:10208000DF0B809174138C3419F40E94BD0A02C0D6
:102090000E94C50A0E945D048FEF9FEF0E94B40763
:1020A00001301105C1F4209781F40E94B3088FEF2D
:1020B0009FEFACE281509040A040E1F700C00000EB
:1020C0000E94B7080E945D0413C0C130D105B1F46D
:1020D0000E94B308FFCF8FEF9FEFACE2815090409A
:1020E000A040E1F700C000000E945D04209789F441
:1020F00089E190E062E40E94DF0B0BC08FEF9FEF5D
:10210000ACE281509040A040E1F700C000000E9486
:102110005D04DF91CF911F910F9108952F923F920F
:102120004F925F926F927F928F929F92AF92BF92E7
:10213000CF92DF92EF92FF920F931F93CF93DF9393
:10214000CDB7DEB7C25DD0400FB6F894DEBF0FBE8C
:10215000CDBF0E94A40A8CB18F678F37E1F70F2E95
:10216000F9E0CF2EDD24F02DCC0EDD1E0F2EF1ED8B
:10217000AF2EBB24F02DAC0EBD1EF6018FEF9FEFEE
:1021800081939193EA15FB05D9F785E793E160E028
:1021900072E00E9499150097A1F086010F2EF0E0E1
:1021A000EF2EF2E0FF2EF02D0E947B15D8018D93CB
:1021B0009D938D0180E090E0B7010E9499150097F2
:1021C00099F727E820930D0280E090E0A7E0B3E4C0
:1021D0008093EB139093EC13A093ED13B093EE1355
:1021E0008093F9139093FA13A093FB13B093FC130D
:1021F0002093F8132093FE1387E867E80E945C0998
:1022000082E390E066E40E94DF0B0E94470D8FEFAF
:102210009FE7A6E181509040A040E1F700C0000098
:1022200081E090E090930B0280930A028EE4809309
:102230000C0283E090E0909305028093040282E018
:1022400090E0909307028093060266247724882406
:10225000992444245524689441F80F2EF4E02F2E3D
:10226000F2E03F2EF02DD1011296CF52DF4FB9830D
:10227000A883C15DD0407601F60100811181FFEF96
:102280000F3F1F0709F4C4C080FC6DC0D601129631
:10229000ED90FC9013976E0C7F1C80910A02909138
:1022A0000B0281309105A1F581E090E0B8010E9418
:1022B000410E80910C02853441F08E3419F5F10104
:1022C0008081918183309105E9F4C70161E070E07C
:1022D0000E944B0F80910C028E3449F4D1018D91F4
:1022E0009C911197019711969C938E938EC0853483
:1022F00009F08BC0E6E0F2E0808191810196918344
:10230000808383C0C70160E070E00E944B0F7DC0F6
:102310005E824D8218861F82CE0105960E940A0EAB
:1023200087E50E948C0C0E94470D81E090E090931D
:102330000B0280930A02D1014D925C9284E090E0FE
:10234000CF52DF4FE881F981C15DD0409183808316
:1023500081E090E0B8010E94410EC70160E070E0AA
:102360000E944B0F52C05A824982A4E0B0E0BC8365
:10237000AB83CE0101960E940A0E85E40E948C0C6C
:102380000E94470D50920B0240920A02F1015182C5
:102390004082CF52DF4FA881B981C15DD0401D92EC
:1023A0001C92C201B8010E94410EF6018281938104
:1023B00086159705C1F484819581FFEF8F3F9F07B4
:1023C00049F481E090E061E070E00E947F0F6624B4
:1023D00077240FC081E090E060E070E00E947F0F02
:1023E0006624772406C080E090E060E070E00E9400
:1023F0007F0FD70114968D919C911597BFEF8F3F5A
:102400009B0719F40E94B308FFCF0894811C911C0C
:10241000E4E0F0E0CE0EDF1EAC14BD0409F02BCFDB
:1024200080E090E0CE52DF4F0FB6F894DEBF0FBED3
:10243000CDBFDF91CF911F910F91FF90EF90DF9073
:10244000CF90BF90AF909F908F907F906F905F9054
:102450004F903F902F9008955058BB27AA270ED039
:1024600048C139D130F03ED120F031F49F3F11F412
:102470001EF42EC10EF4E095E7FB24C1E92F4AD1EA
:1024800080F3BA17620773078407950718F071F491
:102490009EF562C10EF4E0950B2EBA2FA02D0B0114
:1024A000B90190010C01CA01A0011124FF27591B99
:1024B00099F0593F50F4503E68F11A16F040A22F9F
:1024C000232F342F4427585FF3CF46953795279510
:1024D000A795F0405395C9F77EF41F16BA0B620B0F
:1024E000730B840BBAF09150A1F0FF0FBB1F661F56
:1024F000771F881FC2F70EC0BA0F621F731F841F99
:1025000048F4879577956795B795F7959E3F08F0BE
:10251000B3CF9395880F08F09927EE0F979587957D
:1025200008950CD0E6C0DED040F0D5D030F021F4D4
:102530005F3F19F0C7C0511110C1CAC0EBD098F36A
:102540009923C9F35523B1F3951B550BBB27AA2734
:1025500062177307840738F09F5F5F4F220F331FA6
:10256000441FAA1FA9F333D00E2E3AF0E0E830D072
:1025700091505040E695001CCAF729D0FE2F27D075
:10258000660F771F881FBB1F261737074807AB0743
:10259000B0E809F0BB0B802DBF01FF2793585F4FB8
:1025A0002AF09E3F510568F08DC0D7C05F3FECF325
:1025B000983EDCF3869577956795B795F7959F5F7D
:1025C000C9F7880F911D9695879597F90895E1E0D1
:1025D000660F771F881FBB1F621773078407BA0730
:1025E00020F0621B730B840BBA0BEE1F88F7E0958B
:1025F000089598D088F09F5790F0B92F9927B75138
:10260000A0F0D1F0660F771F881F991F1AF0BA95B6
:10261000C9F712C0B13081F09FD0B1E008959CC0DD
:10262000672F782F8827B85F39F0B93FCCF38695AC
:1026300077956795B395D9F73EF490958095709509
:1026400061957F4F8F4F9F4F0895E89409C097FB86
:102650003EF490958095709561957F4F8F4F9F4F79
:102660009923A9F0F92F96E9BB279395F6958795BD
:1026700077956795B795F111F8CFFAF4BB0F11F480
:1026800060FF1BC06F5F7F4F8F4F9F4F16C0882327
:1026900011F096E911C0772321F09EE8872F762F5D
:1026A00005C0662371F096E8862F70E060E02AF09E
:1026B0009A95660F771F881FDAF7880F969587958A
:1026C00097F9089597F99F6780E870E060E00895B2
:1026D0009FEF80EC089500240A941616170618063A
:1026E0000906089500240A94121613061406050616
:1026F0000895092E0394000C11F4882352F0BB0FA7
:1027000040F4BF2B11F460FF04C06F5F7F4F8F4F09
:102710009F4F089557FD9058440F551F59F05F3F44
:1027200071F04795880F97FB991F61F09F3F79F0F3
:1027300087950895121613061406551FF2CF469575
:10274000F1DF08C0161617061806991FF1CF8695F7
:102750007105610508940895E894BB2766277727DB
:10276000CB0197F908950BD0C4CFB5DF28F0BADFBD
:1027700018F0952309F0A6CFABCF1124EECFCADF16
:10278000A0F3959FD1F3950F50E0551F629FF00184
:10279000729FBB27F00DB11D639FAA27F00DB11DDD
:1027A000AA1F649F6627B00DA11D661F829F222766
:1027B000B00DA11D621F739FB00DA11D621F839FED
:1027C000A00D611D221F749F3327A00D611D231FC3
:1027D000849F600D211D822F762F6A2F11249F5711
:1027E00050408AF0E1F088234AF0EE0FFF1FBB1F34
:1027F000661F771F881F91505040A9F79E3F5105D3
:1028000070F060CFAACF5F3FECF3983EDCF3869583
:1028100077956795B795F795E7959F5FC1F7FE2B7D
:10282000880F911D9695879597F90895AA1BBB1B54
:1028300051E107C0AA1FBB1FA617B70710F0A61BC0
:10284000B70B881F991F5A95A9F780959095BC01E1
:10285000CD010895A1E21A2EAA1BBB1BFD010DC0DC
:10286000AA1FBB1FEE1FFF1FA217B307E407F50740
:1028700020F0A21BB30BE40BF50B661F771F881F1C
:10288000991F1A9469F760957095809590959B01B2
:10289000AC01BD01CF010895CF93DF93AC0182302D
:1028A000910510F442E050E0E0910714F091081413
:1028B00020E030E0A0E0B0E024C080819181841766
:1028C0009507D0F08417950771F482819381109752
:1028D00029F013969C938E9312972CC09093081412
:1028E0008093071427C02115310519F0821793072B
:1028F00018F49C01BD01EF0192818381DF01E92F72
:10290000F82F3097D1F621153105F9F0C901841B54
:10291000950B8430910580F48A819B816115710546
:1029200021F0FB019383828304C090930814809369
:102930000714FE01329642C0FE01E80FF91F4193D1
:10294000519302979983888339C08091051490919F
:102950000614009741F48091701390917113909335
:1029600006148093051420916E1330916F13211576
:10297000310541F42DB73EB78091721390917313D6
:10298000281B390BE0910514F0910614E217F307A8
:1029900098F42E1B3F0B2417350770F0CA010296DE
:1029A0002817390748F08E0F9F1F909306148093C5
:1029B00005144193519302C0E0E0F0E0CF01DF91B4
:1029C000CF9108950F931F93CF93DF939C010097AE
:1029D00009F48CC0DC01129713961C921E92129778
:1029E00060910714709108146115710589F48D9137
:1029F0009C911197820F931F20910514309106141A
:102A00002817390769F5B0930614A09305146EC012
:102A1000FB0140E050E001C0FC01EA17FB0730F485
:102A200082819381AF010097B9F71FC0E901229716
:102A3000FB83EA8308811981C901800F911F8E17DA
:102A40009F0759F480819181800F911F029699838D
:102A50008883828193819B838A834115510529F460
:102A6000B0930814A093071441C0FA01B383A28362
:102A7000C191D191EC0FFD1FAE17BF0781F4F90191
:102A8000929182918C0F9D1F0296DA0111969C9370
:102A90008E938281938113969C938E931297E0E09C
:102AA000F0E002C0FB01BC01DB0112968D919C910C
:102AB00013970097B9F7CB0102962D913C9111978E
:102AC000820F931F2091051430910614281739079F
:102AD00069F4309729F4109208141092071402C078
:102AE000138212827093061460930514DF91CF91C4
:102AF0001F910F910895FC0188279927E89421914F
:102B00002032E9F3293010F02E30C8F32B3241F097
:102B10002D3239F4689404C00E94D015820F911DA3
:102B2000219120532A30C0F31EF4909581959F4F38
:102B3000089545EE53E10E94A9150895FB01DC01BB
:102B40000D900020E9F7119701900D920020E1F718
:102B50000895FA01A191B081009719F41097E1F05E
:102B6000CD01DC01CD010D90002011F4C00113C096
:102B7000FB012191222319F02015D9F7F3CFFB0196
:102B80002191201519F41E92119606C02223C1F737
:102B90000D900020A1F7D001FA01A193B083089510
:102BA0007AE0979F902D879F802D910D1124089595
:042BB000F894FFCFC7
:102BB4002C002800FFFFFFFFFFFFFFFF4E7F0000F8
:102BC40000000000010001000100010000000000FD
:102BD40001000000020001000200010001000000E9
:102BE40002000000030001000300010002000000D5
:102BF40003000000040001000400010003000000C1
:102C040004000000050001000500010004000000AC
:102C14000500000006000100060001000500010097
:102C24000000010001000200010002000000010098
:102C34000100010002000200020002000100010084
:102C44000200010003000200030002000200010070
:102C5400030001000400020004000200030001005C
:102C64000400010005000200050002000400010048
:102C74000500010006000200060002000500020033
:102C84000000020001000300010003000000020034
:102C94000100020002000300020003000100020020
:102CA400020002000300030003000300020002000C
:102CB40003000200040003000400030003000200F8
:102CC40004000200050003000500030004000200E4
:102CD40005000200060003000600030005000300CF
:102CE40000000300010004000100040000000300D0
:102CF40001000300020004000200040001000300BC
:102D040002000300030004000300040002000300A7
:102D14000300030004000400040004000300030093
:102D2400040003000500040005000400040003007F
:102D3400050003000600040006000400050000006E
:102D4400000000000100010001000100000000007B
:102D54000100000002000100020001000100000067
:102D64000200000003000100030001000200000053
:102D7400030000000400010004000100030001003E
:102D84000000010001000200010002000000010037
:102D94000100010002000200020002000100010023
:102DA400020001000300020003000200020001000F
:102DB40003000100040002000400020003000200FA
:102DC40000000200010003000100030000000200F3
:102DD40001000200020003000200030001000200DF
:102DE40002000200030003000300030002000200CB
:102DF40003000200040003000400030003000000B9
:102E0400008080808080808080808080000000003E
:102E140000000000000080808080808080808080AE
:102E2400808080808000000080808080808080801E
:102E3400808080800000000000000000000000008E
:102E4400008080808080808080000000000000007E
:102E5400000000000080808080808080800000006E
:102E640000008080808080800080808080808080DE
:102E740080808080808080808080800000000000CE
:102E840000FFFFFFFFFF070707070F0F1FFFFFFEEE
:102E9400FCF8E0000000FFFFFFFFFFFFC7C7C7C744
:102EA400C7C7C7C707000000FFFFFFFFFFFF0707F3
:102EB40007078FFFFFFFFEFC2000C0F8FCFEFFFFAA
:102EC4003F0F0F070707070F1FFFFFFEFCF8E00087
:102ED400007CFEFFFFFFFFC7878787070F0F0700F0
:102EE4000000FFFFFFFFFFFF00070707070707FFBB
:102EF400FFFFFFFFFF0707070707070000000000A9
:102F040000FFFFFFFFFF80808080C0C0E0FCFFFF68
:102F1400FF7F1F000000FFFFFFFFFFFF838383830A
:102F24008383838380800000FFFFFFFFFFFF0F0F79
:102F34000F0F0F0F0707030100000F7FFFFFFFFFB5
:102F4400F0C0C0808080C0C0E0FFFFFFFF7F1F0093
:102F54000080C0C1C38383878787CFFFFFFFFEFC48
:102F64000000FFFFFFFFFFFF00000000000000FF64
:102F7400FFFFFFFFFF000000000000000000000052
:102F840000070707070707070707070703030301E6
:102F940000000000000007070707070707070707E7
:102FA40007070707070700000707070707070000C9
:102FB4000000000000000000000000000001030306
:102FC40003070707070707070703030100000000BB
:102FD40000030307070707070707070703030100A1
:102FE40000000707070707070000000000000007AC
:102FF40007070707070000000000000000000000AA
:10300400000000000080C0E0F0F0F8FCFCFCFCFED6
:10301400FEFEFEFEFEFEFEFEFCFCFCF8F8F0E0E028
:10302400C080000000000000000080E0F8FEFFFF08
:10303400FFFFFFFFFFFFFFFF3F1F1F0F0F0F0F0FCC
:103044001F3F7FFFFFFFFFFFFFFFFFFFFEFCF0C0FE
:10305400000080FCFFFFFFFFFFFFFFFFFFFFFF3FBC
:1030640003000000000000000000000000011FFF3A
:10307400FFFFFFFFFFFFFFFFFFFFFEE0FFFFFFFF7C
:10308400FFFFFFFFFFFFFFFFFF0000000000000045
:10309400000000000000000000FFFFFFFFFFFFFF33
:1030A400FFFFFFFFFFFFFFFFFFFFFFFFFFFFFFFF2C
:1030B400FFFFFF000000000000000000000000000F
:1030C400000000FFFFFFFFFFFFFFFFFFFFFFFFFF09
:1030D400001FFFFFFFFFFFFFFFFFFFFFFFFEE0807A
:1030E4000000000000000000000000C0FCFFFFFF23
:1030F400FFFFFFFFFFFFFFFF3F03000000071F3F2D
:103104007FFFFFFFFFFFFFFFFFFFFEFCFCF8F8F867
:10311400F8F8FCFEFFFFFFFFFFFFFFFFFFFF3F1F6D
:103124000701000000000000000000000103070F79
:103134000F1F1F1F3F3F3F3F3F3F3F3F3F3F1F1F6B
:103144001F0F0F0703030100000000000000000030
:10315400000000000000000000000000000000006B
:10316400000080C0C0E0F0F8F8F8F8F8F8F8F8F8D3
:10317400000000000000000000000000000080C00B
:10318400C0E0E0F0F0F8F8FCFCFEFFFFFFFFFFFFFB
:10319400FFFFFFFFFFFFFFFFFFFF00000000000035
:1031A400000000000000000001073FFFFFFFFF7F59
:1031B4007F7F3F1F1F0F0FFFFFFFFFFFFFFFFFFF7B
:1031C400FFFFFFFF000000000000000000000000FF
:1031D40000000000000101000000000000000000E9
:1031E40000FFFFFFFFFFFFFFFFFFFFFFFFFF0000E8
:1031F40000000000000000000000000000000000CB
:103204000000000000000000000000FFFFFFFFFFBF
:10321400FFFFFFFFFFFFFFFF0000000000000000B2
:10322400000000000000000000000000000000009A
:103234000000000000FFFFFFFFFFFFFFFFFFFFFF95
:10324400FFFF00000000000000000000000000007C
:10325400000000000000000000000000000000FF6B
:10326400FFFFFFFFFFFFFFFFFFFFFFFF0000000066
:10327400000000000000000000000000000000004A
:103284000000000000000000003F3F3F3F3F3F3F81
:103294003F3F3F3F3F3F00000000000000000000B0
:1032A400008080C0E0E0F0F0F0F8F8F8FCFCFCFCF2
:1032B400FCFCFCFCFCFCFCF8F8F8F8F0F0E0E0C0E6
:1032C4008000000000000000040E3F7FFFFFFFFFAE
:1032D400FFFFFF7F7F3F3F1F1F1F1F1F1F1F3F3F1A
:1032E4007FFFFFFFFFFFFFFFFFFFFFFFFEF8C000B0
:1032F40000000000000000030703010000000000BC
:10330400000000000000000000000080FFFFFFFF3D
:10331400FFFFFFFFFFFFFFFF7F0000000000000032
:10332400000000000000000000000000000080C059
:10333400E0F0F8FCFEFFFFFFFFFFFFFFFFFF3F1F72
:103344000701000000000000000000000000000071
:1033540080C0E0F0F8FCFEFFFFFFFFFFFFFFFFFF70
:103364007F3F1F0F07030100000000000000000062
:103374000000000080E0F0FCFEFFFFFFFFFFFFFF06
:10338400FFFF7F3F1F0F0703010000000000000044
:103394000000000000000000000000E0F8FEFFFF55
:1033A400FFFFFFFFFFFFFFFFFFFFF9F8F8F8F8F852
:1033B400F8F8F8F8F8F8F8F8F8F8F8F8F8F8F8F889
:1033C400F8F8F800003F3F3F3F3F3F3F3F3F3F3F5C
:1033D4003F3F3F3F3F3F3F3F3F3F3F3F3F3F3F3FF9
:1033E4003F3F3F3F3F3F3F3F3F3F3F3F3F00004066
:1033F400C0E0E0F0F0F8F8FCFCFCFCFEFEFEFEFE93
:10340400FEFEFEFEFEFEFCFCFCFCF8F8F0F0E0C064
:103414008000000000000000000001071F7F7F7F84
:103424003F3F1F1F1F0F0F0F0F0F0F0F0F1F1F3FC8
:103434007FFFFFFFFFFFFFFFFFFFFFFFFEF0000026
:103444000000000000000000000000000000000078
:103454000000000000000000000080E1FFFFFFFF0B
:10346400FFFFFFFFFFFFFF3F000000000000000020
:10347400000000000000FCFCFCFCFCFCFCFCFCFC70
:10348400FEFEFEFFFFFFFFFFFFFFFFDFDF8F87036F
:103494000000000000000000000000000000000028
:1034A4000F0F0F0F0F0F0F0F0F0F0F1F1F1F3F3F98
:1034B4007FFFFFFFFFFFFFFFFFFFFEFCF8E00000C0
:1034C40000000000000000000000000000000000F8
:1034D4000000000000000000000000C1FFFFFFFF2B
:1034E400FFFFFFFFFFFFFFFF7F0000E0FEFFFEFE88
:1034F400FEFCFCFCFCF8F8F8F8F8F8F8F8F8F8F832
:10350400FCFCFCFEFFFFFFFFFFFFFFFFFFFFFF3F91
:103514001F0700000407070F0F0F1F1F1F1F1F3F68
:103524003F3F3F3F3F3F3F3F3F3F3F3F1F1F1F1F27
:103534000F0F0F0707030101000000000000000047
:103544000000000000000000000000000000000077
:10355400000080C0E0F0F8FCFCFCFCFCFCFCFCFC83
:10356400FCFCFC0000000000000000000000000063
:1035740000000000000080E0F0F8FCFFFFFFFFFF08
:10358400FFFFFFFFFFFFFFFFFFFFFFFFFF00000044
:103594000000000000000000000080C0F0F8FEFF02
:1035A400FFFFFFFFFFFF7F3F1F0703FFFFFFFFFF3B
:1035B400FFFFFFFFFFFFFF0000000000000000808E
:1035C400C0F0FCFEFFFFFFFFFFFFFF3F1F070301EB
:1035D4000000000000FFFFFFFFFFFFFFFFFFFFFFF2
:1035E400FF0000000000E0F8FEFFFFFFFFFFFFFF09
:1035F400FFFFEFE3E0E0E0E0E0E0E0E0E0E0E0FF58
:10360400FFFFFFFFFFFFFFFFFFFFFFE0E0E0E0E061
:10361400FFFFFFFFFFFFFFFFFFFFFFFFFFFFFFFFB6
:10362400FFFFFFFFFFFFFFFFFFFFFFFFFFFFFFFFA6
:10363400FFFFFFFFFFFFFFFFFFFF00000000000090
:103644000000000000000000000000000000000076
:10365400000000FFFFFFFFFFFFFFFFFFFFFFFF0072
:103664000000000000000000000000000000000056
:10367400000000000000000000000000001F1F1FE9
:103684001F1F1F1F1F1F1F1F1F000000000000001F
:103694000000000000FCFCFCFCFCFCFCFCFCFCFC52
:1036A400FCFCFCFCFCFCFCFCFCFCFCFCFCFCFCFC56
:1036B400FCFCFCFCFC00000000000000000000FF1B
:1036C400FFFFFFFFFFFFFFFFFFFF1F1F1F1F1F1F46
:1036D4001F1F1F1F1F1F1F1F1F1F1F1F1F1F1F0015
:1036E4000000000000000000FEFFFFFFFFFFFFFFDF
:1036F400FFFFFF8F8080808000000000000000003A
:1037040000000000000000000000000000000000B5
:1037140000E0FFFFFFFFFFFFFFFFFFFFFFFFFFFFD3
:10372400FFFFFFFFFFFFFFFEFEFEFCFCF8F0F0E0F2
:10373400C080000000000000000000030303030336
:1037440003030303030707070707070F0F0F1F3FB1
:103754003FFFFFFFFFFFFFFFFFFFFFFFFEFCE00057
:103764000000000000000000000000000000000055
:10377400000000000000000000000080FFFFFFFFC9
:10378400FFFFFFFFFFFFFFFFFF000000C0FEFEFE84
:10379400FEFCFCFCFCF8F8F8F8F8F8F8F8F8F8F88F
:1037A400FCFCFCFEFFFFFFFFFFFFFFFFFFFF7F3F6F
:1037B4001F0700000004070F0F0F1F1F1F1F1F1FED
:1037C4003F3F3F3F3F3F3F3F3F3F3F3F1F1F1F1F85
:1037D4000F0F0F07070301000000000000000000A6
:1037E400000000000000000000000000008080C015
:1037F400C0E0E0E0F0F0F0F8F8F8F8F8FCFCFCFCCD
:10380400FCFCFCFC0000000000000000000080C084
:10381400E0F0F8FCFEFEFFFFFFFFFFFFFFFFFFFFEE
:103824007F7F7F3F3F3F3F3F1F1F1F1F1F1F000022
:103834000000000080F0FCFEFFFFFFFFFFFFFFFF22
:10384400FF7F1F0F070303010000000000000000BA
:1038540000000000000000000000000080FCFFFFEA
:10386400FFFFFFFFFFFFFFFFFFFFFFFEFEFFFFFF66
:10387400FFFFFFFFFFFFFFFFFEFEFEFCFCFCF8F076
:10388400F0E080000000FFFFFFFFFFFFFFFFFFFFEE
:10389400FFFFFF0F0F0707070707070707070F0FAC
:1038A4000F1F7FFFFFFFFFFFFFFFFFFFFFFFFCE096
:1038B400077FFFFFFFFFFFFFFFFFFFFFFFF0800019
:1038C40000000000000000000000000080FFFFFF77
:1038D400FFFFFFFFFFFFFFFFFF7F0000030F3F7F9E
:1038E400FFFFFFFFFFFFFFFFFFFFFEFCF8F8F8F804
:1038F400F8F8F8FCFEFFFFFFFFFFFFFFFFFFFF7F6D
:103904003F0F030000000000000000010307070F41
:103914000F1F1F1F3F3F3F3F3F3F3F3F3F3F3F1F63
:103924001F1F0F0F0707030100000000000000FC29
:10393400FCFCFCFCFCFCFCFCFCFCFCFCFCFCFCFCC3
:10394400FCFCFCFCFCFCFCFCFCFCFCFCFCFCFCFCB3
:10395400FCFCFCFCFCFCFCFC001F1F1F1F1F1F1FAA
:103964001F1F1F1F1F1F1F1F1F1F1F1F1F1F1F1F63
:103974009FDFFFFFFFFFFFFFFFFFFFFFFFFF7F3F13
:103984001F0700000000000000000000000000000D
:10399400000000000000C0E0F8FEFFFFFFFFFFFF93
:1039A400FFFFFF7F1F0F0301000000000000000065
:1039B40000000000000000000000000080E0F8FFAC
:1039C400FFFFFFFFFFFFFFFFFFFF1F0701000000D6
:1039D40000000000000000000000000000000000E3
:1039E40000000000E0FCFFFFFFFFFFFFFFFFFFFF01
:1039F4007F1F030000000000000000000000000022
:103A0400000000000000000000000080F8FFFFFF3D
:103A1400FFFFFFFFFFFFFFFF3F0300000000000068
:103A24000000000000000000000000000000000092
:103A340000000000F8FFFFFFFFFFFFFFFFFFFFFF95
:103A44007F030000000000000000000000000000F0
:103A5400000000000000000000000000001F1F1F05
:103A64001F1F1F1F1F1F1F1F1F1F0000000000001C
:103A74000000000000000000000000000000000042
:103A84000000000080C0E0F0F0F8F8FCFCFCFEFE52
:103A9400FEFEFEFEFEFEFEFEFEFCFCFCF8F8F0F070
:103AA400E0C08000000000000000E0F8FEFFFFFF1F
:103AB400FFFFFFFFFFFFFF3F1F1F0F0F0F0F0F0F32
:103AC4001F1F3F7FFFFFFFFFFFFFFFFFFFFFFEF012
:103AD40000000000FFFFFFFFFFFFFFFFFFFFFFFFEE
:103AE400E0800000000000000000000000C0FFFFB4
:103AF400FFFFFFFFFFFFFFFFFF7F00000000000349
:103B0400071F3F7F7FFFFFFFFFFFFFFFFFFFFEFC5D
:103B1400FCF8F8FCFCFEFFFFFFFFFFFFFFBF1F0FD9
:103B24000703010000000000C0E0F8FCFCFEFFFFFA
:103B3400FFFFFFFF7F3F1F0F0F0F1F1F1F3F3F7F21
:103B44007FFFFFFFFFFFFFFFFFFFFEFCF8F0C00059
:103B5400F8FFFFFFFFFFFFFFFFFFFFFFFF01000074
:103B640000000000000000000000000001FFFFFF53
:103B7400FFFFFFFFFFFFFFFFFFFE00071F7FFFFFA9
:103B8400FFFFFFFFFFFFFFFFFEFCFCFCF8F8F8F867
:103B9400F8F8F8FCFCFEFFFFFFFFFFFFFFFFFFFF4D
:103BA4007F3F0F010000000000010307070F0F1FF4
:103BB4001F1F1F3F3F3F3F3F3F3F3F3F3F3F3F1F91
:103BC4001F1F1F0F0F070703010000000000000064
:103BD4000000000080C0C0E0F0F0F8F8F8FCFCFC45
:103BE400FCFCFCFCFCFCFCFCF8F8F8F8F0F0E0C091
:103BF400C0800000000000000080E0F8FEFFFFFF2E
:103C0400FFFFFFFFFFFFFF7F3F3F1F1F1F1F1F1F00
:103C14003F3F7FFFFFFFFFFFFFFFFFFFFFFEF8E0D7
:103C24008000F0FFFFFFFFFFFFFFFFFFFFFFFF0725
:103C34000000000000000000000000000000033F3E
:103C4400FFFFFFFFFFFFFFFFFFFFFFFC001F7FFFE2
:103C5400FFFFFFFFFFFFFFFFFFFFFCF8F0F0E0E0D6
:103C6400E0E0E0E0E0E0E0F0F0F0FFFFFFFFFFFF66
:103C7400FFFFFFFFFFFF0000000103070F1F1F3FAF
:103C84003F7F7F7F7FFFFFFFFFFFFFFFFFFFFF7F80
:103C94007F7FFFFFFFFFFFFFFFFFFFFFFFFFFF3FF0
:103CA4000000000000000000000000000000000010
:103CB40000000000000080C0E0F0F8FEFFFFFFFFFE
:103CC400FFFFFFFFFFFF7F1F03000000000000F85D
:103CD400F8F8F8F8F8F8FCFCFCFCFCFEFEFEFFFF2C
:103CE400FFFFFFFFFFFFFFFFFF7F3F1F0F070300E3
:103CF4000000000000000000003F3F3F3F3F3F3F07
:103D04003F3F1F1F1F1F1F0F0F0F0F070703030145
:103D1400010000000000000000000000000000009E
:043D2400091420005E
:00000001FF
